:020000040800F2
:10000000202B0120093B0008E1380008E3380008F4
:10001000E7380008EB380008EF380008000000005F
:10002000000000000000000000000000F33800089D
:10003000F538000800000000F1950008493B000871
:10004000233B0008233B0008233B0008233B000818
:10005000233B0008233B0008233B0008233B000808
:10006000233B0008233B0008233B0008233B0008F8
:10007000233B0008233B0008233B0008233B0008E8
:10008000233B0008233B0008233B0008233B0008D8
:10009000233B0008233B0008233B000891C60008CF
:1000A000233B0008233B0008233B0008233B0008B8
:1000B000233B0008BDD30008233B0008233B000876
:1000C000233B0008233B0008233B0008233B000898
:1000D000233B0008233B0008B505010881350108D2
:1000E000233B0008233B0008233B0008233B000878
:1000F000233B0008233B0008233B0008233B000868
:10010000233B0008233B0008FDD40008233B0008E4
:100110003F1D0108DD140108233B0008233B0008B4
:10012000233B0008233B0008233B0008233B000837
:10013000233B0008233B0008233B0008233B000827
:10014000233B0008233B0008233B0008233B000817
:10015000233B0008233B0008233B0008233B000807
:10016000233B0008233B0008233B0008233B0008F7
:10017000233B0008233B0008233B0008233B0008E7
:10018000233B0008233B000800F002F800F05CF875
:100190000AA090E8000C82448344AAF10107DA45E2
:1001A00001D100F051F8AFF2090EBAE80F0013F0D8
:1001B000010F18BFFB1A43F0010318474CB60200A9
:1001C0006CB602000A444FF0000C10F8013B13F02B
:1001D000070408BF10F8014B1D1108BF10F8015BA0
:1001E000641E05D010F8016B641E01F8016BF9D193
:1001F00013F0080F1EBF10F8014BAD1C0C1B09D1EA
:100200006D1E58BF01F801CBFAD505E014F8016B5B
:1002100001F8016B6D1EF9D59142D6D370470000ED
:100220000023002400250026103A28BF78C1FBD8FF
:10023000520728BF30C148BF0B6070471FB52BF075
:1002400090F81FBD10B510BD28F072F91146FFF7E8
:10025000F5FF03F087F928F090F903B4FFF7F2FFF8
:1002600003BC28F093F9000017E016F03DF99FED6C
:10027000FE0A16F0B9FBFD4801780078401CFB4AE5
:100280001070012904DD00201146087016F035F8C1
:1002900017F02BF9052003F0B0FCE6E79AB001F067
:1002A00043BC01200BF096FDF14880ED000AF148B7
:1002B000EF4991ED000A0FF05DFAED4890ED000A6C
:1002C00020F092FAEC4801780078401CEA4A10705D
:1002D000032907DD0020114608709FEDE80AE84871
:1002E00022F0A2F9E7480078E0B90120E54908705A
:1002F0001D208DF8600001208DF861008DF86200EE
:100300008DF8630018A803F0A8FC32208DF8600077
:1003100001208DF861008DF862008DF8630018A847
:1003200003F09BFCD848816BD848814200DA09E091
:10033000D548806B42F21071884201DD084601E029
:10034000D148806B00EE100AB8EEC00A8DED050AA8
:1003500005982AF065FF9FEDCE0B53EC102BCDE9ED
:1003600006019DED060B51EC100B2AF00BFA9FEDE8
:10037000CA0B53EC102BCDE908019DED080B51EC95
:10038000100B2AF057FC9FEDC60B53EC102BCDE958
:100390000A019DED0A0B51EC100B2AF037F9CDE95B
:1003A0000C019DED0C0B51EC100B2AF0AFFBBE497C
:1003B0004860B548C16BB548814200DA08E0B248F0
:1003C000C16B42F21070814200DD01E0AE48C06BAB
:1003D00000EE100AB8EEC00A8DED050A05982AF065
:1003E0001FFF9FEDAB0B53EC102BCDE906019DEDEC
:1003F000060B51EC100B2AF0C5F99FEDA70B53EC3F
:10040000102BCDE908019DED080B51EC100B2AF0E3
:1004100011FC9FEDA30B53EC102BCDE90A019DEDD0
:100420000A0B51EC100B2AF0F1F8CDE90C019DED0F
:100430000C0B51EC100B2AF069FB9B4908609248A9
:10044000006C9249884201DA084609E08E48006C47
:1004500042F21071884201DD084601E08A48006CD2
:1004600000EE100AB8EEC00A8DED050A05982AF0D4
:10047000D7FE9FED870B53EC102BCDE906019DEDC8
:10048000060B51EC100B2AF07DF99FED830B53EC1A
:10049000102BCDE908019DED080B51EC100B2AF053
:1004A000C9FB9FED7F0B53EC102BCDE90A019DEDAD
:1004B0000A0B51EC100B2AF0A9F8CDE90C019DEDC7
:1004C0000C0B51EC100B2AF021FB7749C8606E48E9
:1004D000406C6E49884201DA084609E06A48406C7F
:1004E00042F21071884201DD084601E06648406C26
:1004F00000EE100AB8EEC00A8DED050A05982AF044
:100500008FFE9FED630B53EC102BCDE906019DEDA3
:10051000060B51EC100B2AF035F99FED5F0B53ECF5
:10052000102BCDE908019DED080B51EC100B2AF0C2
:1005300081FB9FED5B0B53EC102BCDE90A019DED88
:100540000A0B51EC100B2AF061F8CDE90C019DED7E
:100550000C0B51EC100B2AF0D9FA534988604A4829
:10056000806C4A49884201DA084609E04648806CB6
:1005700042F21071884201DD084601E04248806C79
:1005800000EE100AB8EEC00A8DED050A05982AF0B3
:1005900047FE9FED460B53EC102BCDE906019DED78
:1005A000060B51EC100B2AF0EDF89FED3B0B53ECD2
:1005B000102BCDE908019DED080B51EC100B2AF032
:1005C00039FB9FED370B53EC102BCDE90A019DED64
:1005D0000A0B51EC100B2AF019F8CDE90C019DED36
:1005E0000C0B51EC100B2AF091FA2F498861264828
:1005F000C06C2649884201DA084609E02248C06CEE
:1006000042F21071884201DD084601E01E48C06CCC
:1006100000EE100AB8EEC00A8DED050A05982AF022
:10062000FFFD9FED1B0B53EC102BCDE906019DED5B
:10063000060B51EC100B2AF0A5F89FED170B53ECAD
:10064000102BCDE908019DED080B51EC100B2AF0A1
:10065000F1FA9FED130B53EC102BCDE90A019DED40
:100660000A0B51EC100B25E00AD7A33B84A1002014
:1006700010A00020F4B6002087A100200AD7A33CD8
:10068000ACF5002088A1002098060120F0D8FFFFDB
:10069000000000000088C3400000000000407F40D0
:1006A000000000000070974040ED002000000000B6
:1006B0000040BF4029F0AAFFCDE90C019DED0C0BD5
:1006C00051EC100B2AF022FAFE4908610020179025
:1006D00058E0FC49179851F82010FB480068C830D2
:1006E00081424BD8F749179851F82010F6484068D6
:1006F000C838814242D3179802283FD0F149179851
:1007000051F8200005902AF045FA9FEDF00B53ECCC
:10071000102BCDE906019DED060B51EC100B2AF0D4
:1007200089FACDE90A01EB49179851F820000590A4
:100730002AF030FA9FEDE50B53EC102BCDE90601C2
:100740009DED060B51EC100B2AF074FACDE908016F
:100750009DED0A0B53EC102B9DED080B51EC100B8B
:1007600029F054FFCDE90C019DED0C0B51EC100B61
:100770002AF0CCF9D74A179942F821001798401C63
:10078000C0B2179017980828A3DBCE484068A0F2A3
:10079000DC501690CB480068A0F2DC501590C94898
:1007A000C068A0F2DC501490CB480078072807D02E
:1007B000C9480078082803D0C74800781A280CD107
:1007C000C64890ED000AC64880ED000AC34890ED87
:1007D000010AC34880ED010AF3E0BF48007806280B
:1007E00040D1BE4890ED000ABD4880ED000ABD48EA
:1007F000406909902AF014FDCDE90A019DED0A0B2C
:1008000028F05EFB8DED0C0B9FEDB70B53EC102B1E
:100810009DED0C0B51EC100B2AF00AFB1BD2AF48DC
:10082000406809902AF0FCFC9FEDB10B53EC102BB3
:10083000CDE90A019DED0A0B51EC100B2AF0FAF9F3
:10084000CDE90C019DED0C0B51EC100B29F0ACFE29
:10085000A3494860B5E0A14890ED010AA04880EDA9
:10086000010AAEE09C4800780D2803D09A48007831
:10087000172840D1A04890ED000A994880ED000A61
:100880009848406909902AF0CBFCCDE90A019DED1A
:100890000A0B28F015FB8DED0C0B9FED930B53EC21
:1008A000102B9DED0C0B51EC100B2AF0C1FA1BD252
:1008B0009148406809902AF0B3FC9FED8D0B53ECF2
:1008C000102BCDE90A019DED0A0B51EC100B2AF01B
:1008D000B1F9CDE90C019DED0C0B51EC100B29F099
:1008E00063FE7F4948606CE0834890ED010A7C48D4
:1008F00080ED010A65E0784800780F280CD17F4828
:1009000090ED000A764880ED000A7C4890ED010ADF
:10091000734880ED010A54E06F48007819280CD123
:10092000764890ED000A6E4880ED000A734890ED1D
:10093000010A6B4880ED010A43E0674800781328FC
:1009400036D16F48006809902AF06AFC9FED6D0B64
:1009500053EC102BCDE90A019DED0A0B51EC100B65
:100960002AF068F9CDE90C019DED0C0B51EC100B50
:1009700029F01AFE5A4908606148406809902AF037
:100980004FFC9FED600B53EC102BCDE90A019DED60
:100990000A0B51EC100B2AF04DF9CDE90C019DED3D
:1009A0000C0B51EC100B29F0FFFD4D49486008E09D
:1009B000B7EE000A4A4880ED000AB7EE000A80ED63
:1009C000010A16982AF0CFF8CDE90A019DED0A0B2D
:1009D00028F076FA8DED0C0B9FED4C0B53EC102BA1
:1009E0009DED0C0B51EC100B2AF0E8F868D215982D
:1009F0002AF0B9F8CDE90A019DED0A0B28F060FA5A
:100A00008DED0C0B9FED410B53EC102B9DED0C0B62
:100A100051EC100B2AF0D2F852D214982AF0A3F815
:100A2000CDE90A019DED0A0B28F04AFA8DED0C0B79
:100A30009FED360B53EC102B9DED0C0B51EC100B76
:100A40002AF0BCF83CD23348807D002838D13248A7
:100A50000078A8BB314800682AF0E2FB9FED300B1C
:100A600053EC102BCDE90C019DED0C0B51EC100B50
:100A70002AF0DEF924D22C48D0ED010A184890ED76
:100A8000001A9FED2A0A00EE810ADFED290AB4EE72
:100A9000E00AF1EE10FA02D29FED250A5AE0224850
:100AA000D0ED010A0E4890ED001A9FED200A00EEED
:100AB000810ADFED200AB4EEE00AF1EE10FA3BE025
:100AC000BBE0000040ED0020A0ED00200000000091
:100AD0000000E03F80ED00204CAB0020DCA00020B7
:100AE00054A10020400B01200000000000E08640DF
:100AF000000000000000F83FF4A0002000A100204A
:100B0000E8A000209A9999999999E93F000000007E
:100B1000000059402CF200207AA100205CB1002096
:100B2000333333333333D33F54AB00200080BB44E3
:100B30000080A2440080D44402DD1FED020A09E0D7
:100B4000FE48D0ED010AFE4890ED001A1FED090A9B
:100B500000EE810ABCEEC00AFA4880ED010AF748AF
:100B6000D0ED000AF64890ED011A1FED100A00EED4
:100B7000810A5FED110AB4EEE00AF1EE10FA02D23A
:100B80001FED150A1DE0ED48D0ED000AEC4890ED90
:100B9000011A1FED1A0A00EE810A5FED1A0AB4EE7F
:100BA000E00AF1EE10FA02DD1FED1E0A09E0E3484B
:100BB000D0ED000AE24890ED011A1FED240A00EE84
:100BC000810ABCEEC00ADF4880ED000ADE48D0EDA5
:100BD000000ADE4890ED001A1FED2C0A00EE810A93
:100BE0005FED2D0AB4EEE00AF1EE10FA02D21FED2D
:100BF000300A1DE0D448D0ED000AD44890ED001A28
:100C00001FED360A00EE810A5FED360AB4EEE00A07
:100C1000F1EE10FA02DD1FED390A09E0CA48D0ED05
:100C2000000ACA4890ED001A1FED400A00EE810A42
:100C3000BCEEC00AC34880ED030AC548807DE8B118
:100C4000C4480078D0B9C448007928B19FEDC30AE0
:100C5000C34880ED000A08E0C248008800EE100A90
:100C6000B8EE400ABE4880ED000ABF48008800EE9A
:100C7000100AB8EE400ABA4880ED010ABB4890F865
:100C80002800E0B3BA480068039029F06CFFCDE972
:100C90000601B6484068783800EE100AB8EEC00A7F
:100CA0008DED000AF1EE040A9DED000A24F0EDFC42
:100CB0008DED010A01982AF0B3FA9FEDAE0B53ECCB
:100CC000102BCDE902019DED020B51EC100B29F028
:100CD000B1FFCDE904019DED060B53EC102B9DED0A
:100CE000040B51EC100B29F0A5FFCDE90A019C483B
:100CF000006807902AF094FACDE9080100E064E06A
:100D00009DED0A0B53EC102B9DED080B51EC100BD5
:100D100029F07CFCCDE90C019DED0C0B51EC100B86
:100D200029F042FC8E49086091484068039029F000
:100D30001AFFCDE906018D480068A03800EE100AC0
:100D4000B8EEC00A8DED000AF1EE040A9DED000A2E
:100D500024F09BFC8DED010A01982AF061FA9FEDC9
:100D6000870B53EC102BCDE902019DED020B51ECEA
:100D7000100B29F05FFFCDE904019DED060B53EC4C
:100D8000102B9DED040B51EC100B29F053FFCDE916
:100D90000A017348406807902AF042FACDE9080139
:100DA0009DED0A0B53EC102B9DED080B51EC100B35
:100DB00029F02CFCCDE90C019DED0C0B51EC100B36
:100DC00029F0F2FB6649486007E36148807DD8B3AB
:100DD0006C48B0F90000B0F57A7F23DD6948B0F9BE
:100DE0000000A0F2DC5000EE100AB8EEC00A8DED53
:100DF0000D0ADFED650A9DED0D0A24F046FC6348FF
:100E0000D0ED000AF1EE600A60EE200A584890ED3D
:100E1000000AB8EEC01A524890ED000A00EE810AAE
:100E200080ED000A5748B0F90200B0F57A7FCBDDBB
:100E30005448B0F90200A0F2DC5000EE100AB8EEFF
:100E4000C00A8DED0D0A00E019E0DFED4F0A9DEDBF
:100E50000D0A24F01AFC4D48D0ED000AF1EE600AAC
:100E600060EE200A424890ED010AB8EEC01A3C48F4
:100E700090ED010A00EE810A80ED010AADE24448DE
:100E80000078132800D100BF414800780D2818D100
:100E90003448008800EE100AB8EE400A304880ED71
:100EA000000A2B48417B304800883A4A126802FB0E
:100EB000110000EE100AB8EEC00A294880ED010AC0
:100EC0008BE233480078172818D12648008800EEB6
:100ED000100AB8EE400A224880ED000A1C48407B08
:100EE000214909882B4A126802FB001000EE100A03
:100EF000B8EEC00A1A4880ED010A6EE22648007872
:100F00000028BBD0254890F828000028B6D02448F7
:100F100090F829000028B1D01D480078182844D046
:100F20001B4800780F2840D019480078D0B31848E3
:100F30000078192839D01648007834E054AB0020E6
:100F400054A1002080ED0020D0AA00201CA1002088
:100F50002CF2002090A1002037A400200000AF4414
:100F600000A0002022A1002024A10020480601208A
:100F7000CCA000207B14AE47E17A943F7B14AE47AF
:100F8000E17A84BF24F100200000A04214A00020D8
:100F90004CAB0020A4A0002020A10020FC050120D3
:100FA000B005012001E013288AD1FE484068C0F155
:100FB000780000EE100AB8EEC00A8DED050AF3EED7
:100FC0000E0A9DED050A24F0AFFB8DED0C0AF548E5
:100FD0004068C0F1780000EE100AB8EEC00A8DED4E
:100FE000050AF3EE040A9DED050A24F09DFB8DED44
:100FF0000A0AEC484068C0F1780000EE100AB8EE2A
:10100000C00A8DED050AF2EE040A9DED050A24F0F2
:101010008BFB8DED080AE3484068C0F1780000EED4
:10102000100AB8EEC00A8DED050AF1EE040A9DED36
:10103000050A24F079FB8DED060A9DED0C0ADA48CD
:10104000D0ED000A20EE200AD848D0ED0D0A20EE9F
:10105000600AD748D0ED000A60EE200AD54890ED2E
:10106000000AB8EEC01AD44890ED000A00EE810ADA
:1010700080ED000A9DED0A0ACB48D0ED000A20EE73
:10108000600ACA48D0ED0D0A20EE200AC848D0ED0B
:10109000010A60EE200AC74890ED000AB8EEC01AB7
:1010A000C54890ED000A00EE810A80ED000A9DED32
:1010B000080ABD48D0ED000A20EE600ABB48D0ED1A
:1010C0000D0A20EE200ABA48D0ED020A60EE200A8E
:1010D000B84890ED000AB8EEC01AB74890ED000A83
:1010E00000EE810A80ED000A9DED060AAE48D0EDC3
:1010F000000A20EE600AAD48D0ED0D0A20EE200A6D
:10110000AB48D0ED020A60EE200AAA4890ED000A32
:10111000B8EEC01AA84890ED000A00EE810A80EDF2
:10112000000AA64890ED000AB1EE400AA448D0EDAE
:10113000000A60EE200A9F4890ED000AB8EEC01A3F
:101140009D4890ED000A00EE810A80ED000A954866
:101150004068C0F1780000EE100AB8EEC00A994865
:10116000D0ED000A30EE600A9748D0ED000A20EE7C
:10117000200AD0ED000AB7EE001A71EE600A93481B
:1011800090ED001A00EE810A8C4880ED000A90ED87
:10119000000A8E4880ED000A82484068C0F178005D
:1011A00000EE100AB8EEC00A864880ED000A7D48BD
:1011B0000068A03800EE100AB8EEC00A8DED050AEE
:1011C000DFED830A9DED050A24F0AEFA8DED0D0AE0
:1011D00074480068A03800EE100AB8EEC00A8DED21
:1011E000050AF3EE090A9DED050A24F09DFA8DED3E
:1011F0000B0A6C480068A03800EE100AB8EEC00A6E
:101200008DED050AF2EE0E0A9DED050A24F08CFA2A
:101210008DED090A63480068A03800EE100AB8EEA8
:10122000C00A8DED050AF1EE040A9DED050A24F0D1
:101230007BFA8DED070A9DED0D0A5B48D0ED000AA3
:1012400020EE200A5948D0ED0E0A20EE600A5848D8
:10125000D0ED030A60EE200A564890ED010AB8EE80
:10126000C01A554890ED010A00EE810A80ED010A8E
:101270009DED0B0A4C48D0ED000A20EE600A4B4869
:10128000D0ED0E0A20EE200A4948D0ED040A60EEA7
:10129000200A484890ED010AB8EEC01A464890ED81
:1012A000010A00EE810A80ED010A9DED090A3E481F
:1012B000D0ED000A20EE600A3C48D0ED0E0A20EE88
:1012C000200A3B48D0ED050A60EE200A394890ED2F
:1012D000010AB8EEC01A384890ED010A00EE810A02
:1012E00080ED010A9DED070A2F48D0ED000A20EE9F
:1012F000600A2E48D0ED0E0A20EE200A2C48D0EDD0
:10130000050A60EE200A2B4890ED010AB8EEC01ADB
:10131000294890ED010A00EE810A80ED010A274874
:1013200090ED010AB1EE400A2548D0ED010A60EEC9
:10133000200A204890ED010AB8EEC01A1E4890ED30
:10134000010A00EE810A80ED010A16480068A03803
:1013500000EE100AB8EEC00A1A48D0ED010A30EECD
:10136000600A1948D0ED000A20EE200AD0ED000AEC
:10137000B7EE001A71EE600A144890ED011A00EE03
:10138000810A0E4880ED010A90ED010A0F4880EDB8
:10139000010A04480068A03800EE100AB8EEC00A3E
:1013A000084817E0B005012018A00020FC05012026
:1013B00020A00020CCA0002000A00020A8A1002098
:1013C00038A00020A0A1002040A00020B0A1002053
:1013D00000000C4280ED010A00BFF74890ED000AC2
:1013E000F7EE000A30EEC00AF448D0ED0C0A20EE09
:1013F000200AF148D0ED000AF14890ED001A00EE05
:10140000810A80ED000AEF4890F82800D8B1EE4834
:1014100090F82900B8B1ED48807DA0B9EC48D0ED36
:10142000000AE74890ED000A24F02FF9F1EE400A97
:10143000E84890ED010AE84890ED001A00EE810AB4
:10144000E44880ED010AE148807DE8BBE34800788C
:101450000F2806D0E1480078192802D0DF4800782C
:1014600090BBDF480088DE490988491CDC4A1180AE
:101470000B9029F08FFB9FEDDB0B53EC102BCDE98C
:101480000C019DED0C0B51EC100B29F0D1FC20D27E
:101490000020D3490880D548007928B19FEDD40AAF
:1014A000CC4880ED000A08E0D248008800EE100A1F
:1014B000B8EE400AC74880ED000ACF48008800EE29
:1014C000100AB8EE400A00E00FE0C24880ED010AC1
:1014D0000EE0BD4890F8280050B1BB4890F82900B4
:1014E00030B10020BE49088002E00020BC490880DD
:1014F000C148008800EE100AB8EE400AB54880EDF9
:10150000010A90ED000ABD4880ED000AB14890ED57
:10151000010ABA4880ED020A90ED000AB848D0ED01
:10152000000A30EE200A8DED0D0AF7EE000A9DED5F
:101530000D0A24F0AAF88DED0E0A9DED0E0AB148B1
:10154000D0ED000A20EE200ADDED0E0AAE4890ED47
:10155000001A70EEC10AAD4890ED001A00EE810A43
:101560008DED110AA54890ED010AA948D0ED000AB9
:1015700030EE200A8DED0D0AF7EE000A9DED0D0A02
:1015800024F083F88DED0F0A0F98099029F048FE9A
:10159000CDE90A019DED0A0B27F092FC8DED0C0BB5
:1015A0009FED9C0B53EC102B9DED0C0B51EC100B95
:1015B00029F004FB15D29DED0F0A9248D0ED010AE7
:1015C00020EE200ADDED0F0A8F4890ED011A70EE33
:1015D000C10A8E4890ED011A00EE810A8DED120AC3
:1015E00049E00F98099029F01BFECDE90A019DED15
:1015F0000A0B27F065FC8DED0C0B9FED880B53EC6F
:10160000102B9DED0C0B51EC100B29F0D7FA19D2D1
:101610009DED0F0A7B48D0ED010A20EE200AF1EE85
:10162000000A20EE200ADDED0F0A774890ED011A3E
:1016300070EEC10A754890ED011A00EE810A8DED39
:10164000120A18E09DED0F0A6E48D0ED010A20EE57
:10165000200AF2EE000A20EE200ADDED0F0A6A48A9
:1016600090ED011A70EEC10A684890ED011A00EE83
:10167000810A8DED120A614890ED020A6948D0EDA9
:10168000000A30EE600A8DED0D0AF7EE080A9DEDB6
:101690000D0A23F0FAFF8DED100A634801880088D7
:1016A000401C614A1080C82908DACA201146088007
:1016B0005C4890ED000A514880ED020A10980990AC
:1016C00029F0AEFDCDE90A019DED0A0B27F0F8FBEC
:1016D0008DED0C0B9FED510B53EC102B9DED0C0B76
:1016E00051EC100B29F0A4FB05D24E4890ED000AF6
:1016F000424880ED020ADDED100A4C4890ED000AE8
:101700004B4890ED001A01EE200A484880ED000A8F
:101710009DED100A3B48D0ED020A20EE200ADDEDD7
:10172000100A394890ED021A70EEC10A374890ED60
:10173000021A00EE810A3D48D0ED000A30EE200A80
:101740008DED130A234890ED000ADFED3A0AB4EE5E
:10175000E00AF1EE10FA02D29FED360A0FE01D48C2
:1017600090ED000ADFED340AB4EEE00AF1EE10FA73
:1017700002DD9FED310A02E0164890ED000A15489F
:1017800080ED000A90ED010ADFED2C0AB4EEE00ACC
:10179000F1EE10FA02D29FED290A56E00D4890EDC5
:1017A000010ADFED270AB4EEE00AF1EE10FA49DD96
:1017B0009FED230A49E000008CA0002080FD00205E
:1017C00094A10020FC050120B00501202CF200208E
:1017D00080A0002000A0002084A000204CAB0020AE
:1017E00098A10020000000000050A44037A4002071
:1017F0000000AF4422A1002024A1002004B7002053
:1018000050A40020B4A0002090D2002010B70020E7
:1018100084B100200000000000002440000000000F
:10182000000034408CB100209AA100209CA100202F
:10183000C0A0002000007F440080F74400409C448A
:1018400000C0DA44FE4890ED010AFD4880ED010A2F
:10185000FC4890ED010AF7EE000A70EEC00AFA4863
:1018600090ED040AB8EE400A20EE800AF548D0ED6B
:10187000010AF34890ED001A00EE810ABCEEC00A9E
:10188000F14880ED040AEF4890ED010AF7EE000AF6
:1018900070EEC00AEC4890ED050AB8EE400A20EE62
:1018A000800AE848D0ED010AE54890ED011A00EE03
:1018B000810AE648D0ED000A30EE200AE448D0ED77
:1018C000000A30EE200ABCEEC00ADF4880ED050AAF
:1018D000E048006829F0A4FCCDE90C01D84890ED5F
:1018E000010ABDEEC00A10EE100AA0F2DC5007900B
:1018F00029F039F9CDE908019DED080B27F0E0FA50
:101900008DED0A0B9DED0C0B53EC102B9DED0A0B8E
:1019100051EC100B29F052F972D20120CE4981F816
:101920004800C748D0ED010ACC48008800EE100AF4
:10193000B8EE400A30EEC00A8DED0D0ADFEDC80AA0
:101940009DED0D0A23F0A1FEC348D0ED0F0AB1EEC4
:10195000601ADFEDC30A41EE000A9FEDC20AF4EE01
:10196000C00AF1EE10FA02D29FEDBE0A43E0B4487D
:10197000D0ED010AB948008800EE100AB8EE400A1E
:1019800030EEC00A8DED0D0ADFEDB50A9DED0D0AB2
:1019900023F07BFEB048D0ED0F0AB1EE601ADFED08
:1019A000B00A41EE000A9FEDB00AF4EEC00AF1EE73
:1019B00010FA02DD9FEDAC0A1DE0A148D0ED010A4E
:1019C000A648008800EE100AB8EE400A30EEC00AC1
:1019D0008DED0D0ADFEDA20A9DED0D0A23F055FEF7
:1019E000F0EE400A9C4890ED0F0AB1EE401A9FEDD0
:1019F0009C0A01EE200A924880ED020A71E0FFE79E
:101A00008F48D0ED010A9548008800EE100AB8EE24
:101A1000400A30EEC00A8DED0D0ADFED910A9DED12
:101A20000D0A23F032FE8C48D0ED0F0AB1EE601A99
:101A3000DFED8B0A41EE000A9FED8A0AF4EEC00A40
:101A4000F1EE10FA02D29FED870A43E07C48D0ED18
:101A5000010A8248008800EE100AB8EE400A30EE13
:101A6000C00A8DED0D0ADFED7E0A9DED0D0A23F013
:101A70000CFE7948D0ED0F0AB1EE601ADFED780A5E
:101A800041EE000A9FED780AF4EEC00AF1EE10FA7A
:101A900002DD9FED750A1DE06948D0ED010A6F482F
:101AA000008800EE100AB8EE400A30EEC00A8DED54
:101AB0000D0ADFED6B0A9DED0D0A23F0E6FDF0EE59
:101AC000400A654890ED0F0AB1EE401A9FED640A96
:101AD00001EE200A5A4880ED020A00215E4880F893
:101AE0004810624800680D90604840680C900246BB
:101AF0005F4955480D9B09F034FE5E48807D5E4984
:101B00000870514800885D4908804F4880884880A7
:101B10004D48008988804C48808981B25748C180EF
:101B2000052002F06AF800BFFEF7BBBB4CE00020C6
:101B30000AF050F9524880ED000A5248D0ED063ABA
:101B4000B0EE633AD0ED053AF0EE632AD0ED043AF8
:101B5000B0EE632AD0ED0C3AF0EE631AD0ED0B3AFA
:101B6000B0EE631AD0ED0A3AF0EE630A4448D0EDC5
:101B7000003AB6EE004A63EE843AB0EE630A424A97
:101B80004249434825F019FD3D4890ED000A17F001
:101B9000F4FE404801780078401C3E4A1070092944
:101BA00004DD00201146087017F068FB3A48017800
:101BB0000078401C384A1070032902DD00201146CD
:101BC0000870052002F019F8B1E78DE00CF0A1FDD6
:101BD0000DF03CFC0BF0A5FD3048007808B9012061
:101BE00000E0002023498875012008762B48807882
:101BF0004871002081F844000872012081F84000FB
:101C000000204872887381F83400487381F83200EC
:101C10008871012081F84000002081F8440048725A
:101C200001200873002081F8320081F8340001207F
:101C300081F835001948407819490870012031E0D1
:101C400000A0002044A0002080ED002050A0002033
:101C500098A0002090A00020FC05012024A10020D5
:101C6000000000000000C8C20000C842A0ED002033
:101C700054A000202CF2002090A10020D4A000202D
:101C800028A1002080FD002034A100202CA10020EC
:101C900030A10020B9A10020BAA100203FA400205B
:101CA00020A10020FE4981F83600FE48C07881F866
:101CB0003300FD488068C82803D90120FB4908701B
:101CC00002E00020F9490870142001F096FFF8485E
:101CD00001780078401CF64A1070012904DD0020CC
:101CE000114608700DF081FB70E711E0F1480178B2
:101CF0000078401CEF4A1070012906DD00201146D3
:101D000008701FED290A24F04EFF0A2001F075FF2C
:101D1000ECE704E00AF034F9642001F06EFFF9E723
:101D2000A8B0E1E3E44890ED000A20EE000AD0ED0F
:101D3000010A90ED011A00EE810AD0ED020A90ED41
:101D4000021A00EEC10AD0ED030A90ED031A00EE6C
:101D5000C10A8DED1F0A90ED010AD0ED020A20EEB6
:101D6000200AD0ED000A90ED031A00EE810AF0EE91
:101D7000000A20EE200A8DED200A90ED010AD0ED38
:101D8000030A20EE200AD0ED000A90ED021A00EEC0
:101D9000C10AF0EE000A20EE200A8DED210A90ED36
:101DA000010AD0ED020A20EE200AD0ED000A90EDE3
:101DB000031A00EEC10AF0EE000A20EE200A8DEDB3
:101DC000220A90ED000A20EE000AD0ED010A90ED03
:101DD000011A00EEC10AD0ED020A90ED021A00EEDF
:101DE000810AD0ED030A90ED031A00EEC10A8DEDD1
:101DF000230A90ED020AD0ED030A20EE200AD0ED6E
:101E0000000A90ED011A00EE810AF0EE000A20EEC1
:101E1000200A8DED240A90ED010AD0ED030A20EE90
:101E2000200AD0ED000A90ED021A00EE810AF0EED1
:101E3000000A20EE200A8DED250A90ED020AD0ED71
:101E4000030A20EE200AD0ED010A90ED001A00EE00
:101E5000C10AF0EE000A20EE200A8DED260A90ED70
:101E6000000A20EE000AD0ED010A90ED011A00EE02
:101E7000C10AD0ED020A90ED021A00EEC10AD0EDBF
:101E8000030A90ED031A00EE810A8DED270A8B48B4
:101E900000690F9029F0C4F99FED890B53EC102BCA
:101EA000CDE910019DED100B51EC100B28F06AFCF0
:101EB000CDE912019DED120B51EC100B28F074FBD3
:101EC0001C907E4840690F9029F0AAF99FED7C0B89
:101ED00053EC102BCDE910019DED100B51EC100BC4
:101EE00028F050FCCDE912019DED120B51EC100BC6
:101EF00028F05AFB1D90714880690F9029F090F9E5
:101F00009FED6F0B53EC102BCDE910019DED100BE5
:101F100051EC100B28F036FCCDE912019DED120BAF
:101F200051EC100B28F040FB1E909DED1C0A8DED2E
:101F3000190A9DED1D0A8DED1A0A9DED1E0A8DED03
:101F40001B0A9DED190ADDED1F0A20EE200ADDEDCA
:101F50001A0A9DED221A00EE810ADDED1B0A9DEDA5
:101F6000251A00EE810A8DED140A9DED190ADDEDAA
:101F7000200A20EE200ADDED1A0A9DED231A00EE5C
:101F8000810ADDED1B0A9DED261A00EE810A8DED1A
:101F9000150A4D48006829F043F99FED4C0B53ECAE
:101FA000102BCDE904019DED040B51EC100B28F032
:101FB00041FECDE906019DED060B27F0B5FD8DED47
:101FC0000A0B1598079029F02BF9CDE908019DED32
:101FD0000A0B53EC102B9DED080B51EC100B28F065
:101FE00029FECDE90E013848006829F019F99FED66
:101FF000370B53EC102BCDE904019DED040B51EC94
:10200000100B28F017FECDE906019DED060B26F01A
:10201000F3FE8DED0A0B1498079029F001F9CDE934
:1020200008019DED0A0B53EC102B9DED080B51ECB4
:10203000100B28F0FFFDCDE90C019DED0E0B53ECCC
:10204000102B9DED0C0B51EC100B28F0FFFFCDE990
:1020500010019DED100B51EC100B28F098FACDE912
:1020600012019DED120B51EC100B28F09DFA169009
:102070001548006829F0D4F89FED140B53EC102B91
:10208000CDE904019DED040B51EC100B28F0D2FDBD
:10209000CDE906019DED060B27F046FD1AE0000094
:1020A0002CF200203FA4002040ED002028A40020B6
:1020B000BBA10020BDA100203024012080FD002014
:1020C000000000000000B0408CB10020EC51B81EB0
:1020D00085EB913F8DED0A0B1498079029F0A0F83D
:1020E000CDE908019DED0A0B53EC102B9DED080B7B
:1020F00051EC100B28F09EFDCDE90E01FB48006865
:1021000029F08EF81FED0F0B53EC102BCDE90401D5
:102110009DED040B51EC100B28F08CFDCDE9060170
:102120009DED060B26F068FE8DED0A0B15980790C5
:1021300029F076F8CDE908019DED0A0B53EC102B40
:102140009DED080B51EC100B28F074FDCDE90C014E
:102150009DED0E0B53EC102B9DED0C0B51EC100B69
:1021600028F054FACDE910019DED100B51EC100B45
:1021700028F00DFACDE912019DED120B51EC100B78
:1021800028F012FA17909DED160ADFEDD90A20EE1D
:10219000200ABDEEC00AB8EEC00AF1EE400A9FED7B
:1021A000D41A80EE810A8DED0F0A0F9829F038F8C5
:1021B0009FEDD00B53EC102BCDE910019DED100BD2
:1021C00051EC100B28F036FDCDE912019DED120BFC
:1021D00051EC100B28F0E8F9C849169008609DED05
:1021E000170ADFEDC30A20EE200ABDEEC00AF8EEA2
:1021F000C00A9FEDBF1A80EE810A8DED0F0A0F987D
:1022000029F00EF89FEDBB0B53EC102BCDE910011C
:102210009DED100B51EC100B28F00CFDCDE91201D7
:102220009DED120B51EC100B28F0BEF9B34917903D
:1022300048609DED180AF7EE000A30EE600ADFED07
:10224000AC0A20EE200ABDEEC00AB8EEC00AF1EEDC
:10225000400A9FEDA71A80EE810A8DED0F0A0F98B4
:1022600028F0DEFF9FEDA30B53EC102BCDE91001FE
:102270009DED100B51EC100B28F0DCFCCDE91201A8
:102280009DED120B51EC100B28F08EF99B49189024
:1022900088609B4890ED000B51EC100B28F084F9FE
:1022A00098490860984890ED000B51EC100B28F00D
:1022B0007BF994494860914890ED010A934880ED7C
:1022C000000A00680F9028F0ABFFCDE910019DEDEA
:1022D000100B26F0F5FD8DED120B9FED8D0B53ECE1
:1022E000102B9DED120B51EC100B28F067FC04D263
:1022F0009FED890A854880ED000A844800680B90AC
:1023000028F08EFF9FED850B53EC102BCDE90C01CF
:102310009DED0C0B51EC100B28F08CFCCDE910015D
:10232000804800680D9028F07BFFCDE90E019DEDFF
:10233000100B53EC102B9DED0E0B51EC100B28F0F5
:1023400065F9CDE912019DED120B51EC100B28F04F
:102350002BF974490860694890ED000A6B4880EDDC
:10236000010A40680F9028F05BFFCDE910019DED58
:10237000100B26F0A5FD8DED120B9FED650B53ECB8
:10238000102B9DED120B51EC100B28F017FC04D212
:102390009FED610A5D4880ED010A5C4840680B9042
:1023A00028F03EFF9FED5D0B53EC102BCDE90C01A7
:1023B0009DED0C0B51EC100B28F03CFCCDE910010D
:1023C000584840680D9028F02BFFCDE90E019DED97
:1023D000100B53EC102B9DED0E0B51EC100B28F055
:1023E00015F9CDE912019DED120B51EC100B28F0FF
:1023F000DBF84C4948604C4890ED000AF7EE000AC3
:1024000030EEC00A3F48D0ED000A20EE200A084610
:10241000D0ED000A444890ED001A01EE200A08466B
:1024200080ED000A404890ED000AF7EE000A30EE19
:10243000C00A3448D0ED010A20EE200A0846D0ED4B
:10244000010A394890ED001A01EE200A084680ED95
:10245000010A2C4890ED000A3448D0ED000A30EE15
:10246000600A8DED0B0A0B9828F0DAFE9FED300B19
:1024700053EC102BCDE90C019DED0C0B51EC100B26
:1024800028F0D8FBCDE910012B4800680D9028F00A
:10249000C7FECDE90E019DED100B53EC102B9DED09
:1024A0000E0B51EC100B28F0B1F8CDE912019DEDA7
:1024B000120B51EC100B28F077F81F490860084602
:1024C00000680F9028F0ACFE9FED1C0B53EC102B16
:1024D000CDE910019DED100B51EC100B28F06EFBB7
:1024E00030D29FED160B49E0CBE100008CB100200B
:1024F000000048433D0AD7A370BD23401CCD0020F7
:10250000D0A80020C8A10020D8A80020D8A1002071
:102510009A9999999999A93F000000007B14AE47B8
:10252000E17A843FD0A1002048A1002040A10020F2
:10253000713D0AD74D62703FC0A10020000000002D
:102540000000E0BFFE4800680F9028F069FE9FED94
:10255000FD0B53EC102BCDE910019DED100B51EC50
:10256000100B28F065FC02D29FEDF60B06E0F44854
:102570000068119028F054FE41EC100B8DED120B09
:102580009DED120B51EC100B28F00EF8EC49086091
:10259000EE4890ED010AEE48D0ED010A30EE600AF7
:1025A0008DED0B0A0B9828F03BFE1FED1F0B53EC33
:1025B000102BCDE90C019DED0C0B51EC100B28F00C
:1025C00039FBCDE91001DE4840680D9028F028FE67
:1025D000CDE90E019DED100B53EC102B9DED0E0B74
:1025E00051EC100B28F012F8CDE912019DED120B01
:1025F00051EC100B27F0D8FFD149486008464068DD
:102600000F9028F00DFE1FED330B53EC102BCDE98E
:1026100010019DED100B51EC100B28F0CFFA02D2F7
:102620001FED3A0B1BE0C64840680F9028F0F8FDFC
:102630009FEDC40B53EC102BCDE910019DED100B59
:1026400051EC100B28F0F4FB02D29FEDBE0B06E01C
:10265000BB484068119028F0E3FD41EC100B8DED74
:10266000120B9DED120B51EC100B27F09DFFB4499E
:102670004860B64890ED000AB648D0ED000A30EE4A
:10268000600A8DED090A099828F0CAFDCDE90C0110
:10269000B148D0ED000A9FEDB10A20EE800A8DED21
:1026A000010A019828F0BCFD1FED640B53EC102BC0
:1026B000CDE902019DED020B51EC100B28F0BAFAA6
:1026C000CDE904019DED040B53EC102B9FEDA40B01
:1026D00051EC100B28F056F89FEDA10B53EC102B8A
:1026E000CDE906019DED060B51EC100B27F08EFF96
:1026F000CDE908019DED080B53EC102B9FED980BD5
:1027000051EC100B28F03EF8CDE90A019DED0C0BC1
:1027100053EC102B9DED0A0B51EC100B28F08AFAAC
:10272000CDE910018B4800680D9028F079FDCDE9C6
:102730000E019DED100B53EC102B9DED0E0B51EC8B
:10274000100B27F063FFCDE912019DED120B51EC48
:10275000100B27F029FF7F490860084690ED000A1A
:102760007748D0ED000A30EE200A794880ED000A63
:102770007D4880ED020A754890ED010A0846D0EDCB
:10278000010A30EE600A8DED090A099828F048FD2B
:10279000CDE90C017048D0ED000A9FED700A20EEE3
:1027A000800A8DED010A019828F03AFD1FEDA50B76
:1027B00053EC102BCDE902019DED020B51EC100BF7
:1027C00028F038FACDE904019DED040B53EC102BF1
:1027D0009FED630B51EC100B27F0D4FF9FED600BC6
:1027E00053EC102BCDE906019DED060B51EC100BBF
:1027F00027F00CFFCDE908019DED080B53EC102BE1
:102800009FED570B51EC100B27F0BCFFCDE90A01EF
:102810009DED0C0B53EC102B9DED0A0B51EC100BA6
:1028200028F008FACDE910014A4840680D9028F0D8
:10283000F7FCCDE90E019DED100B53EC102B9DED37
:102840000E0B51EC100B27F0E1FECDE912019DEDCE
:10285000120B51EC100B27F0A7FE3E4948600846CA
:1028600090ED010A3648D0ED010A30EE200A3848D2
:1028700080ED010A3C4880ED030A052001F0BDF916
:1028800000BFFFF74FBA2DED028BE0E0374801782B
:102890000078401C354A1070012950DD0020114697
:1028A000087013F063F8324890F84800012808D106
:1028B0003048006828B90A2012F0C8FF0A2013F037
:1028C00013F82C480068012806D1294890F84800E0
:1028D00010B90A2013F02CF8254890F84800254933
:1028E00008602548C06C254988420FDC24480068F0
:1028F00028F096FC41EC180B9FED220B53EC102BAB
:1029000028F096FA02D20120204908701F4800786A
:1029100038B11948C06C1E49884202DD00201B49AD
:1029200008701A480078B8B30A2012F07AFF1048ED
:10293000807990B31748C08802EE100A2EE083E039
:10294000C0A10020000000000000E03FC8A100205E
:1029500040A10020D0A100204CA10020C3F5484098
:10296000000000000000F03FC0F10020E0A10020C6
:102970002CF20020E4A1002098060120D8DCFFFF03
:102980005CB10020B9533A58FFE7D43F50A1002072
:1029900078ECFFFFD4A0002042E020E0B8EE422A0D
:1029A000F0EE421AFE48808802EE100AB8EE422A83
:1029B000B0EE421AFA48008802EE100AB8EE422A37
:1029C000F0EE420AF648408802EE100AB8EE422ABB
:1029D000B0EE420AF348007813F01CF81DE0F0480E
:1029E000808801EE900AF8EE611AB0EE611AEC48A8
:1029F000008801EE900AF8EE611AF0EE610AE848EC
:102A0000408801EE900AF8EE611AB0EE610AE548DE
:102A10000078DFEDE51A12F0FDFF142001F0EDF86B
:102A2000E248007830B9E2480078012802D1052058
:102A300012F08DFFDD480078DD490870DD48007830
:102A400010B10A2012F08CFE052001F0D6F81DE727
:102A500092B07AE3D84801780078401CD64A1070CA
:102A6000012904DD00201146087010F01EFFD24835
:102A700041784078401CD04A5070012929DD00205F
:102A800011464870CD49CE4803F0DBFD08B3CB4971
:102A9000CB4803F0F2FDCB48007810B101280ED1ED
:102AA00006E00120C7490870002011F0A2FD06E0F1
:102AB0000020C4490870032011F09BFD00BF00BF37
:102AC00001228021C04801F091FF4221BC4809F059
:102AD000DFFF0EF07FFCB84881788078401CB64A52
:102AE000907004297DDD0020114688704FF0205140
:102AF000B64803F0A6FD002873D04FF02051B3482C
:102B000003F0BBFDB248007805286BD2DFE800F087
:102B1000039FFEFDFC00AF48006828F081FB9FED9D
:102B2000AE0B53EC102BCDE90A019DED0A0B51ECD5
:102B3000100B28F07FF8CDE90C019DED0C0B51EC4A
:102B4000100B27F0B3FF00B21190A548006828F0E1
:102B500067FB9FEDA10B53EC102BCDE90A019DED16
:102B60000A0B51EC100B28F065F8CDE90C019DED36
:102B70000C0B51EC100B27F099FF00B21090994804
:102B8000006828F04DFB9FED940B53EC102BCDE922
:102B90000A019DED0A0B51EC100B28F04BF8CDE922
:102BA0000C019DED0C0B51EC100B27F07FFF00B2D8
:102BB0000F908D4800680A2190FBF1F000B20E9052
:102BC0000020089009900A900B900023DDE90F2166
:102BD0001198CDE90432CDE906101A4683484068C1
:102BE00001E0A4E298E290ED010AB1EE400ADFEDC7
:102BF000800A20EE200ABDEEC00A10EE100A00B2D4
:102C00007C49496891ED010AB1EE400ADFED780A8E
:102C100020EE200ABDEEC00A10EE101A09B2CDE96E
:102C20000013CDE902027348406890ED000ADFED21
:102C3000700A20EE200ABDEEC00A10EE100A00B2A3
:102C400002460D9018460E9910F0A0FF65E261480B
:102C5000006828F0E5FA9FED600B53EC102BCDE9EE
:102C60000A019DED0A0B51EC100B27F0E3FFCDE9B3
:102C70000C019DED0C0B51EC100B27F017FF00B26F
:102C800011905748006828F0CBFA9FED530B53EC96
:102C9000102BCDE90A019DED0A0B51EC100B27F02A
:102CA000C9FFCDE90C019DED0C0B51EC100B27F089
:102CB000FDFE00B210904B48006828F0B1FA9FED7D
:102CC000460B53EC102BCDE90A019DED0A0B51EC9C
:102CD000100B27F0AFFFCDE90C019DED0C0B51EC73
:102CE000100B27F0E3FE00B20F900020089009902F
:102CF0000A900B900023DDE90F211198CDE90432F1
:102D0000CDE906103C4802E06EE1F3E015E0B0F8D2
:102D1000500000B23849B1F85C1009B2CDE9001397
:102D2000CDE902033448B0F8640000B21A46014607
:102D30000E90184610F02AFFEFE12648006828F0B0
:102D40006FFA9FED250B53EC102BCDE908019DED9B
:102D5000080B51EC100B27F06DFFCDE90A019DED3A
:102D60000A0B51EC100B27F0A1FE00B21190234882
:102D7000006828F055FA9FED180B53EC102BCDE9A5
:102D800008019DED080B51EC100B27F053FFCDE926
:102D90000A019DED0A0B51EC100B27F087FE2FE086
:102DA000D4A0002051A100200080BB4450A10020ED
:102DB000E1A100207BA10020E8A10020000020204C
:102DC000A0600240ECA1002000440040B864024032
:102DD00068A1002084B10020000000000000244011
:102DE00088B100208CB1002070A8002028B10020FC
:102DF0000000C84230B10020C0F1002034A90020FA
:102E000000B21090FE48006828F00AFA1FED0E0B81
:102E100053EC102BCDE908019DED080B51EC100B84
:102E200027F008FFCDE90A019DED0A0B51EC100BCC
:102E300027F03CFE00B20F90F24890ED000AF2EE4F
:102E4000040A80EE201ABDEEC10A10EE100A00B28C
:102E50000E90ED4890ED000AF2EE040A80EE201A82
:102E6000BDEEC10A10EE100A00B20D9000200890CD
:102E700009900A900B90E54BDDE90F21119893ED35
:102E8000000ADFEDE30A20EE200ABDEEC00A10EED4
:102E9000103A1BB2CDE90432CDE906100022DD481C
:102EA000406890ED010AB1EE400A5FED2F0A20EE76
:102EB000200ABDEEC00A10EE100A00B2D6494968D9
:102EC00091ED010AB1EE400A5FED370A20EE200ACB
:102ED000BDEEC00A10EE101A09B2CDE900120023AF
:102EE000CDE90202CD48008800B2DDE90D1210F0F4
:102EF0004DFE12E1CA48006828F092F91FED4A0B16
:102F000053EC102BCDE90A019DED0A0B51EC100B8F
:102F100027F090FECDE90C019DED0C0B51EC100B50
:102F200027F0C4FD00B21190BE48006828F078F97F
:102F30001FED570B53EC102BCDE90A019DED0A0B49
:102F400051EC100B27F076FECDE90C019DED0C0B3A
:102F500051EC100B27F0AAFD00B21090A8480068B1
:102F600028F05EF91FED640B53EC102BCDE90A013C
:102F70009DED0A0B51EC100B27F05CFECDE90C0126
:102F80009DED0C0B51EC100B27F090FD00B20F9053
:102F90000020089009900A900B900023DDE90F2192
:102FA0001198CDE90432CDE906109F48008901B29D
:102FB0009E48008900B29C4A928812B2CDE9002353
:102FC000CDE902019948808800B20E9096480088A9
:102FD00000B20D909548008800B20C900022DDE907
:102FE0000D1310F0D3FD98E08D48006828F018F913
:102FF0001FED870B53EC102BCDE908019DED080B5D
:1030000051EC100B27F016FECDE90A019DED0A0BDD
:1030100051EC100B27F04AFD00B211908148006876
:1030200028F0FEF81FED940B53EC102BCDE90801AE
:103030009DED080B51EC100B27F0FCFDCDE90A01CA
:103040009DED0A0B51EC100B27F030FD00B21090F3
:103050006B48006828F0E4F81FEDA10B53EC102B2F
:10306000CDE908019DED080B51EC100B27F0E2FDB6
:10307000CDE90A019DED0A0B51EC100B27F016FD6E
:1030800000B20F906A4890ED000B51EC100B27F046
:103090000DFD00B29FED670B53EC102B0E906748AF
:1030A00090ED000B51EC100B27F0C4FDCDE90A01A7
:1030B0009DED0A0B51EC100B27F0F8FC00B200213B
:1030C000089109910A910B910D900023DDE90F21E0
:1030D0001198CDE90432CDE90610594890ED000A67
:1030E0005FEDBD0A20EE200ABDEEC00A10EE100A08
:1030F00000B20E99CDE90013CDE902030022514838
:103100000D9B90ED000ABDEEC00A10EE100A01B250
:10311000104610F03BFD00E000BF00BF01228021FF
:10312000494801F063FC4221484809F0B1FC484895
:10313000C178C078401C464AD070012902DD0020C9
:103140001146C870052000F058FD83E4414A12780A
:10315000052A04D10022404B1A803E4B1A703E4A89
:1031600012883E4B1B781A443B4B1A80394A12781E
:10317000521C384B1A70704770B52DED048B044605
:103180000D460CF0A2FD07F030FE354991F82A00FB
:1031900091F82A10491C324B83F82A1027F0FAFCC8
:1031A00041EC180B9FED2F0B53EC102B27F040FE3A
:1031B00003D200202A4981F829002C4991F82A00DD
:1031C00091F82A10491C294B83F82A1027F0E2FCB9
:1031D00041EC180B9FED260B53EC102B27F028FE2B
:1031E00003D20020214981F82900234890ED000AEC
:1031F00010EE101A084628F013F841EC190B3DE0C8
:1032000038A90020ACA900205CA900205CB10020F6
:1032100000007A4428B1002030B1002034A30020FF
:1032200084B1002034A9002040ED002060ED002092
:10323000E0A800200000000000005940D0A80020B5
:1032400040A10020F0A8002000100140B864024016
:10325000E8A10020EDA1002078A1002038A20020E4
:10326000B005012000000000000054404806012085
:10327000000000000000444098060120B0EE490A1A
:10328000F0EE690A25F01CFEB0EE408AF0EE608A8E
:103290009FED610B53EC102B51EC180B27F0C8FD80
:1032A0001CD35F4890ED010A10EE101A084627F073
:1032B000B7FF41EC190BB0EE490AF0EE690A25F0B0
:1032C000FFFDB0EE408AF0EE608A9FED530B53ECA9
:1032D000102B51EC180B27F0ABFD05D20020514903
:1032E00008800120504908704E48008827F052FCA1
:1032F00041EC180B9FED4D0B53EC102B27F098FD74
:1033000005D20020484908704649088007E0464831
:10331000007820B143480088401C42490880454954
:1033200008880988491C434B198027F033FC41EC7D
:10333000180B9FED410B53EC102B27F079FD06D2B3
:1033400000203F4908704FF6FA703A490880344827
:10335000806C3C49884208DA3948007828B100205E
:10336000394908800120394908703748008827F01A
:1033700011FC41EC180B9FED2D0B53EC102B27F09B
:1033800057FD05D20020314908702F49088007E019
:103390002E48007820B12C480088401C2A4908801B
:1033A0002B4908880988491C294B198027F0F2FB12
:1033B00041EC180B9FED270B53EC102B27F038FD39
:1033C00006D24FF6FA70224908800020234908707F
:1033D000234908880988491C214B198027F0DAFB0A
:1033E00041EC180B9FED140B53EC102B27F020FD34
:1033F00006D201201B4908704FF6FA701849088060
:103400000748C06C20B10020154908801549087094
:10341000BDEC048B70BD704700000000008056407A
:1034200098060120EEA100207AA1002000000000F3
:1034300000004E407EA1002000000000000034404B
:103440007CA10020A8E4FFFFF0A100207BA10020C8
:10345000FCA500209999999999993140FEA50020E1
:1034600082A1002080A100207FB50446002500BF76
:10347000002004F034FAE54908604FF48071E44814
:1034800004F02CFCE349086003A9002003F08CFE43
:10349000E149086003F028FC03A8E0A10022E14B09
:1034A000CDE90021029002220A21084605F077FDAD
:1034B000DD49086003A9DC48006805F002FF03A8A5
:1034C000DAA10022DB4BCDE9002102900222052186
:1034D0000A2005F064FDD849086003A9D6480068B1
:1034E00005F0EFFE06F05CF805460123D34A002103
:1034F000D34805F01BF90223D24A0021D24805F037
:1035000015F90323D14A0021D14805F00FF904230E
:10351000D04A0021D04805F009F90523CF4A0021FF
:10352000CF4805F003F90823CE4A0021CE4805F024
:10353000FDF80923CD4A0021CD4805F0F7F807230F
:10354000CC4A0021CC4805F0F1F80623CB4A0021F3
:10355000CB4805F0EBF8142005F068FB284606F090
:1035600023F87FBD1CB54FF4A06000F071FBA820CC
:1035700000F0F2FA08F093F909F0DCFC40F2DC50BC
:10358000C04908600020486040F6AC50886007F0F1
:10359000E7FEBD48007808B106F002FCB948806833
:1035A000BA49B1FBF0F0B74988820020C8740874AA
:1035B00040F28970086040F25340486043F2205066
:1035C0008860492088820B461B889AB20B469B88EC
:1035D00099B2AC4B1B8998B208F08DF907F03AFF0D
:1035E00008F03EFC642008F0E9FB07F052F9642083
:1035F00008F0E4FB13F032FD642008F0DFFB052047
:1036000013F054F8642008F0D9FB12F037FF64205F
:1036100008F0D4FB13F022FD23F02FFB07F0A8FBEA
:103620000AF0C6F9642008F0C9FB4FF4E1300DF050
:10363000A4FF01204221964B964ACDE90010C10615
:10364000954809F0C9F94FF461300CF091FB012065
:103650004221924B924ACDE90010C106914809F0EF
:10366000BBF94FF4E1300DF0E6FF4FF461300FF09D
:103670001AFC642008F0A2FB08F07CFC08F0ACFA0D
:10368000282103200AF098FA0AF05DFA9FED860AD5
:10369000864880ED0D0A9FED840A80ED0E0A9FEDAD
:1036A000840A80ED0F0A9FED830A834880ED0D0A9E
:1036B0009FED820A7D4880ED100A9FED810A80ED22
:1036C000110A00207F4908707F4981F82A0081F89B
:1036D0002E0081F83C00012081F82F00002081F8A5
:1036E0003000C87781F8270081F8280081F8290088
:1036F0004871012081F83200002081F8230081F810
:10370000250081F8260008700120487500204877C0
:10371000012081F82F0081F822000874C87600206B
:1037200081F82000C87381F831000877C87381F8E8
:103730002600012081F8210000208877012088766A
:1037400048708870C87000200871012088740020BB
:1037500048740120C874002081F84200087540F2C6
:10376000DC505A49C880088048804FF47A708880BD
:103770000420574908606FF00C0048600020886002
:103780000120C8604FF4FA7050490881488188814F
:10379000C8816FF48E504F49C8644F488864012235
:1037A00080213F48001F01F021F942213D4809F0E6
:1037B0006FF9012280213748001F01F017F94221DB
:1037C000354809F065F9642008F0F8FA03F04DF97E
:1037D0001423424A0021AFF26F3004F0A7FF03F038
:1037E0006BFA00201CBD1CB50FE001A800230322CA
:1037F0001F2100900848006803F03CFE01AB002246
:103800001F210548006803F075FFEEE7F4A10020D2
:103810009CD30020F8A10020FCA10020746D72311F
:10382000000000004D3100086CA10020746D723260
:10383000000000007931000870A10020F0B30020E2
:1038400069020008F0B600209D02000818BA0020A6
:103850002D1B000818C00020EB1C000818CA00200F
:10386000131D000818BD0020CB1B00088CD20020BF
:10387000512A000818CD0020211D00088CD00020FE
:1038800087280008A0ED002000A2002040420F0081
:1038900082FA002004100140B86402400AFB0020B4
:1038A00004440040A060024091ED7C3EFC050120F4
:1038B0009A99993E8FC2F5BDB0050120000068427B
:1038C000CDCCCC3F28A400202CF2002018EF002003
:1038D00028EF002098060120C0E0FFFF98D30020C9
:1038E000704700BFFEE700BFFEE700BFFEE700BF76
:1038F000FEE77047704700000CB500200190009073
:103900007648006840F480307449086000BF73480E
:10391000006800F4003000900198401C019000986D
:1039200018B90198B0F5A04FF1D16C48006800F4C7
:10393000003010B10120009001E0002000900098BC
:10394000012846D165484030006840F08050634906
:10395000403108606248006840F4404060490860B7
:103960005E48083000685D49083108600846006814
:1039700040F4004008600846006840F4A050086029
:103980005848091F0860081F006840F08070091F30
:10399000086000BF5148006800F000700028F9D0AE
:1039A00040F20570504908604C480830006820F02B
:1039B00003004A49083108600846006840F00200E8
:1039C000086000BF45480830006800F00C00082877
:1039D000F8D10CBD10B54548006840F4700043496B
:1039E00008603E48006840F001003C490860002043
:1039F0003A4908310860394800683D49084037496C
:103A000008603C48091D0860081F006820F48020F9
:103A1000091F0860002031490C310860FFF76CFF76
:103A20004FF0006031498039086010BD70B500204A
:103A30000022022300240221284D08352D6805F0BC
:103A40000C0020B1042806D0082834D107E02A4D04
:103A50002A4E356033E02A4D284E35602FE01F4D49
:103A60002D1D2D68C5F380541C4D2D1D2D6805F0AE
:103A70003F0154B1224DB5FBF1F5184E361D3668A5
:103A8000C6F3881605FB06F209E01B4DB5FBF1F500
:103A9000124E361D3668C6F3881605FB06F20F4D2A
:103AA0002D1D2D68C5F301456D1C6B00B2FBF3F5B0
:103AB000124E356003E0104D104E356000BF00BF60
:103AC000064D08352D68C5F303150E4E705D0B4D80
:103AD0002D68C540094E356070BD000000380240B9
:103AE0000070004008544007003C024088ED00E0B0
:103AF000FFFFF6FE103000240024F40004A2002092
:103B000000127A0008A200200948804709480047AF
:103B1000FEE7FEE7FEE7FEE7FEE7FEE7FEE7FEE77D
:103B2000FEE7FEE704480549054A064B70470000DA
:103B3000D53900088901000820250120202B01200B
:103B4000202701202027012010B502F0A6FF03F056
:103B5000EAF802F0BDFF10BD70B504466FF0040036
:103B600000F0C8F8E11704EB5171C1F3C701344A02
:103B70001170E11704EB5171CD1041F288304543CB
:103B80000520304908804FF0E020006940F0020035
:103B90004FF0E021086108464561006940F00100EE
:103BA000086170BD2DE9F047074600264FF0E02080
:103BB000D0F814902248007807FB00F800BF02F00C
:103BC000BFFF4FF0E020856911E04FF0E0208469ED
:103BD000AC420CD0AC4202D2281B064403E0A9EB55
:103BE0000400284406442546464500D300E0ECE79F
:103BF00000BF02F0EAFFBDE8F08770B50446124846
:103C00000078012814D11148007888B90D4800883F
:103C1000844206DB0B48008894FBF0F5284605F04B
:103C2000CDF80848008894FBF0F100FB114084B205
:103C30004FF47A7104FB01F0FFF7B4FF70BD000090
:103C400018A200201AA2002052A2002046A20020A2
:103C500032490143324A1160704770B50021002398
:103C60000F22C4781CB32E4C246804F4E064C4F51D
:103C7000E064C4F30721C1F10404E3B20A414478CB
:103C80009C40E1B28478144021430C07210E254C5E
:103C900005786155047804F01F050124AC400578CF
:103CA0006D11AD0005F1E025C5F8004109E004788B
:103CB00004F01F050124AC401B4D0678761145F831
:103CC000264070BD194A0A400243154B1B1F1A605B
:103CD000704739B1124A121D12680243104B1B1D66
:103CE0001A6006E00E4A121D126882430C4B1B1D1F
:103CF0001A607047042808D14FF0E021096941F0AB
:103D000004014FF0E022116107E04FF0E021096962
:103D100021F004014FF0E022116170470000FA0524
:103D20000CED00E000E400E080E100E080FFFF1F18
:103D300010B504469848844208D10121084600F095
:103D400086FB0021012000F082FB76E0934884424C
:103D500008D10121022000F07AFB0021022000F0AE
:103D600076FB6AE08E48844208D10121042000F0ED
:103D70006EFB0021042000F06AFB5EE0894884426B
:103D800008D10121082000F062FB0021082000F08A
:103D90005EFB52E08448844208D10121102000F0EB
:103DA00056FB0021102000F052FB46E07F48844281
:103DB00008D10121202000F04AFB0021202000F042
:103DC00046FB3AE07A48844208D10121402000F0C5
:103DD0003EFB0021402000F03AFB2EE07548844273
:103DE00008D10121802000F032FB0021802000F06A
:103DF0002EFB22E07048844208D10121801500F09A
:103E000026FB0021A01500F022FB16E06B4884423F
:103E100008D10121401500F01AFB0021601500F0C7
:103E200016FB0AE06648844207D10121001500F024
:103E30000EFB0021201500F00AFB10BDF0B50A466C
:103E400000210023002400BF3DE0012505FA01F315
:103E5000156805EA03049C4234D105684F00032627
:103E6000BE40B543056015794E00B5400668354340
:103E700005601579012D02D01579022D16D18568BE
:103E80004F000326BE40B543856055794E00B540CE
:103E9000866835438560456801268E40B543456098
:103EA000456896798E40B6B235434560C5684F0087
:103EB0000326BE40B543C560D5794E00B540C668FF
:103EC0003543C560491C1029BFD3F0BD4FF6FF71C3
:103ED00001600021017141718171C171704708B5A4
:103EE0004FF480320092009A0A430092009AC26115
:103EF000C161009AC261C2690092C269009208BDA4
:103F00000246002013690B400BB1012000E00020A5
:103F100070470146086980B2704702460020536925
:103F20000B400BB1012000E00020704701464869BA
:103F300080B2704701837047418370470AB10183A3
:103F400000E0418370474161704742694A404261E5
:103F50007047F0B5002300244D07ED0E02FA05F37B
:103F6000CE1000F1200555F826504E07F70E0F260B
:103F7000BE40B543CF1000F1200646F82750CE10C2
:103F800000F1200555F8265045EA0304CE1000F153
:103F9000200545F82640F0BD000002400004024024
:103FA00000080240000C02400010024000140240D1
:103FB00000180240001C0240002002400024024081
:103FC00000280240F948006840F00100F749086005
:103FD0000020F64908310860F4480068F4490840B8
:103FE000F2490860F348091D0860F348EF4984313D
:103FF0000860F0481038091D0860EC48006820F49B
:104000008020EA4908600020E8490C310860E7494F
:104010008C31086070470021E44A921C11701146EF
:104020000870704710B501460022002300204A1195
:10403000012A02D1DD4C236808E0022A03D1DB4CBF
:104040007034236802E0D94C7434236801F01F02F5
:10405000012494401C400CB1012000E0002010BD60
:1040600038B5002000900024002500BF3120FFF764
:10407000D9FF05460098401C00900098B0F5A04F6D
:1040800001D0002DF2D03120FFF7CCFF08B1012480
:1040900000E00024204638BD01460020C34A1068D5
:1040A00020F0F80040EAC10010607047C349086082
:1040B00070470021BD4A703211701170012802D082
:1040C00004280AD104E00121B84A7032117005E0D9
:1040D0000521B64A7032117000E000BF00BF704782
:1040E000B7490860704770B5049C41EA8215012603
:1040F000C6EB530645EA0645054345EA0465AB4E63
:10410000361D356070BDAD4908667047820142EAD0
:104110000172A64B84331A607047A84988667047BD
:1041200010B5830143EA016343EA02739F4C88346C
:10413000236010BDA14908677047A049C864704753
:1041400002460020994B0833186820F0EC6042EAE0
:1041500001031843954B083318607047024600204E
:10416000924B0833186820F0784042EA0103184364
:104170008E4B083318607047014600208B4A083286
:10418000106820F00300084310607047874808302B
:10419000006800F00C00704701460020834A083296
:1041A000106820F0F00008431060704701460020BE
:1041B0007E4A0832106820F4E050084310607047CF
:1041C00001460020794A0832106820F4604040EA35
:1041D000C10010607047F0B50021002200240225C4
:1041E00000260223714F08373F6807F00C0121B108
:1041F000042905D0082937D105E0724F076036E061
:10420000714F076033E0694F3F1D3F68C7F3805629
:10421000664F3F1D3F6807F03F036EB16A4FB7FB23
:10422000F3F7DFF888C10CF1040CDCF800C0CCF324
:10423000881C07FB0CF40CE0624FB7FBF3F7DFF8C8
:104240006CC10CF1040CDCF800C0CCF3881C07FB3B
:104250000CF4564F3F1D3F68C7F301477F1C7D009C
:10426000B4FBF5F7076002E0564F076000BF00BFE0
:104270004E4F08373F6807F0F0010909534F7A5C49
:104280000768D7404760494F08373F6807F4E05157
:10429000890A4E4F7A5C4768D7408760434F08379A
:1042A0003F6807F46041490B484F7A5C4768D74044
:1042B000C760F0BD002100F44072B2F5407F0AD122
:1042C0003A4A0832116821F4F811414A0240114378
:1042D000364A08321160354A70321268C0F30B0357
:1042E0001A43324B70331A607047354944390860BD
:1042F0007047334940390860704736490860704755
:1043000001460020294A8C32106820F01F004A1E06
:104310001043264A8C321060704701460020234A21
:104320008C32106820F4F8504A1E40EA02201F4ADE
:104330008C3210607047014600201C4A8C32106895
:1043400020F4401008431060704701460020174ACF
:104350008C32106820F4400008431060704701461A
:104360000020124A8C32106820F44030084310605C
:10437000704719490860704739B10C4A30321268E9
:1043800002430A4B30331A6006E0084A30321268A2
:104390008243064B30331A607047F9B1034A343216
:1043A00012680243014B34331A601CE000380240AB
:1043B000FFFFF6EA103000240030002000004742E2
:1043C000800E47420024F40000127A001CA2002054
:1043D000FFFCFF0F5C014742E01147428F4A126821
:1043E00082438E4B1A60704739B18C4A121D126895
:1043F00002438A4B1B1D1A6006E0884A121D126890
:104400008243864B1B1D1A60704739B1834A0C32B8
:1044100012680243814B0C331A6006E07F4A0C326B
:10442000126882437D4B0C331A60704739B17B4A66
:10443000103212680243794B10331A6006E0774A53
:10444000103212688243754B10331A60704739B1CD
:10445000724A243A12680243704B243B1A6006E009
:104460006E4A243A126882436C4B243B1A607047B0
:1044700039B16A4A203A12680243684B203B1A60FD
:1044800006E0664A203A12688243644B203B1A6079
:10449000704739B1614A1C3A126802435F4B1C3BBA
:1044A0001A6006E05D4A1C3A126882435B4B1C3B73
:1044B0001A60704739B1594A143A12680243574B8F
:1044C000143B1A6006E0554A143A12688243534B73
:1044D000143B1A60704739B1504A103A12680243CF
:1044E0004E4B103B1A6006E04C4A103A1268824369
:1044F0004A4B103B1A60704739B1484A1C32126867
:104500000243464B1C331A6006E0444A1C321268D0
:104510008243424B1C331A60704739B13F4A203204
:10452000126802433D4B20331A6006E03B4A2032BA
:1045300012688243394B20331A60704739B1374AC9
:10454000243212680243354B24331A6006E0334AA2
:10455000243212688243314B24331A60704739B1D8
:104560002E4A2C32126802432C4B2C331A6006E080
:104570002A4A2C3212688243284B2C331A60704727
:1045800039B1264A303212680243244B30331A6064
:1045900006E0224A303212688243204B30331A60E0
:1045A0007047012808D11D493C31096841F00801D4
:1045B0001A4A3C32116007E018493C31096821F081
:1045C0000801164A3C321160704739B1134A273A44
:1045D00012780243114B273B1A7006E00F4A273A24
:1045E000127882430D4B273B1A7070470B484030BE
:1045F000006840F08070094940310860704701460A
:104600000020064A283A12680A400AB1012000E058
:10461000002070470149263908707047343802403D
:1046200010B501218803FFF756FF00214FF48040A9
:10463000FFF751FF10BD1C49086070471B49086215
:10464000704730B500228B071C0F0F2303FA04F2CA
:10465000154B08338C1053F824309343124C083414
:104660008D1044F8253023468C1053F824308C07E5
:10467000240F00FA04F423430B4C08348D1044F843
:10468000253030BD0949DC310860704708490860B1
:104690007047002004492031096801F4807109B194
:1046A000012000E000207047003801400000274250
:1046B0000004274210B50446FA48844208D101217B
:1046C0001020FFF708FF00211020FFF704FF57E03C
:1046D000F548844209D101214804FFF7EBFE00218F
:1046E0004FF40030FFF7E6FE4AE0F048844209D17B
:1046F00001218804FFF7DEFE00214FF48020FFF740
:10470000D9FE3DE0EA48844209D10121C804FFF7FF
:10471000D1FE00214FF40020FFF7CCFE30E0E54849
:10472000844209D101210805FFF7C4FE00214FF49E
:104730008010FFF7BFFE23E0DF48844208D101214B
:104740002020FFF7C8FE00212020FFF7C4FE17E05D
:10475000DA48844209D101218807FFF7ABFE002126
:104760004FF08040FFF7A6FE0AE0D548844207D10B
:1047700001214005FFF79EFE00216005FFF79AFE2C
:1047800010BD2DE9FF4705460E460024A14600BF97
:10479000A046B08900B100BF2C8A24F44054F088B0
:1047A00004432C82AC8941F20C608443B088318987
:1047B0000843718908430443AC81AC8A24F44074F3
:1047C000B0890443AC826846FFF705FDB5488542D1
:1047D00002D0B948854202D1DDF80C9001E0DDF845
:1047E0000890A88900F4004040B109EBC90000EB33
:1047F000091031684900B0FBF1F707E009EBC90087
:1048000000EB091031688900B0FBF1F76420B7FBB9
:10481000F0F004012009642101FB1078A88900F45C
:10482000004040B1322000EBC800B0FBF1F000F0D6
:104830000700044308E0322000EB08106421B0FBBD
:10484000F1F000F00F0004432C81BDE8FF874FF426
:104850001651016000218180C18001810C214181BC
:1048600000218181704710B502460020108A20F493
:1048700070600B884C8823438C882343CC88234367
:104880001843108210BD0021018041808180C180C9
:10489000704721B1828942F40052828104E082890A
:1048A0004DF6FF731A4082817047028B02F47F42FB
:1048B0000283028B0A430283704721B1828942F44A
:1048C0000042828103E08289C2F30E028281704736
:1048D00021B1828A42F40062828204E0828A4FF22D
:1048E000FF731A4082827047C1F3080282807047CA
:1048F00001468888C0F308007047028A4FF6F073BB
:104900001A400282028A0A430282704721B18289D8
:1049100042F00202828104E082894FF6FD731A4060
:104920008281704782894FF2FF731A4082818289A7
:104930000A4382817047028A4FF6DF731A4002826F
:10494000028A0A430282704721B1028A42F48042FD
:10495000028204E0028A4BF6FF731A40028270471B
:10496000818941F001018181704721B1828A42F041
:104970000802828204E0828A4FF6F7731A4082822C
:104980007047028BD2B20283028B42EA0122028379
:10499000704721B1828A42F02002828204E0828A3A
:1049A0004FF6DF731A408282704721B1828A42F04B
:1049B0001002828204E0828A4FF6EF731A408282EC
:1049C0007047828A4FF6FB731A408282828A0A43BA
:1049D0008282704721B1828A42F00202828204E020
:1049E000828A4FF6FD731A40828270471AB1838A19
:1049F0000B43838202E0838A8B4383827047F0B546
:104A00000346002400260025002040F66A17B9421C
:104A100000D100BF1846C1F3421401F01F06012760
:104A200007FA06F5012C01D10C3004E0022C01D16B
:104A3000103000E014301AB107682F43076002E01D
:104A40000768AF430760F0BD02460020B1F5007F64
:104A500000D100BF13880B400BB1012000E0002003
:104A6000704701F40072B2F5007F00D100BFCA4365
:104A70000280704770B50246002400230025002004
:104A800040F66A16B14200D100BFC1F3421501F0F1
:104A90001F03012606FA03F3012D13D19689334033
:104AA00017E00000001001400044004000480040B2
:104AB000004C0040005000400014014000780040CD
:104AC000007C0040022D02D1168A334001E0968A14
:104AD00033400C12012606FA04F41688344013B150
:104AE0000CB1012000E0002070BD10B500220023B1
:104AF00040F66A14A14200D100BF0A12012494407A
:104B0000A3B2DC43048010BD10B50446FE488442C5
:104B100008D101210846FFF7DEFC00210120FFF744
:104B2000DAFC9DE0B4F1804F08D101210846FFF77F
:104B3000C1FC00210120FFF7BDFC91E0F348844255
:104B400008D101210220FFF7B5FC00210220FFF768
:104B5000B1FC85E0EE48844208D101210420FFF732
:104B6000A9FC00210420FFF7A5FC79E0E948844274
:104B700008D101210820FFF79DFC00210820FFF744
:104B800099FC6DE0E448844208D101211020FFF730
:104B900091FC00211020FFF78DFC61E0DF4884428A
:104BA00008D101212020FFF785FC00212020FFF7FC
:104BB00081FC55E0DA48844208D101210220FFF748
:104BC0008AFC00210220FFF786FC49E0D548844298
:104BD00009D101210804FFF77EFC00214FF4803049
:104BE000FFF779FC3CE0D048844209D10121480418
:104BF000FFF771FC00214FF40030FFF76CFC2FE051
:104C0000CA48844209D101218804FFF764FC0021CD
:104C10004FF48020FFF75FFC22E0C548844208D1B2
:104C200001214020FFF746FC00214020FFF742FC15
:104C300016E0C048844208D101218020FFF73AFCE9
:104C400000218020FFF736FC0AE0BB48844207D1F0
:104C500001218015FFF72EFC0021A015FFF72AFC8B
:104C600010BD00220288A84B98420ED0AC4B98424F
:104C70000BD0B0F1804F08D0A44B984205D0A44B84
:104C8000984202D0A34B984204D14FF68F731A403A
:104C90004B881A43A04B984207D0A04B984204D0AF
:104CA0004FF6FF431A400B891A4302804B68C362D8
:104CB0000B880385944B984202D0994B984201D1BE
:104CC0008B7A03860123838270474FF0FF31416066
:104CD00000210180018141808172704701858282BB
:104CE00070470A46002101884FF68F73194011431F
:104CF0000180704741627047C16270470146486A4F
:104D000070470146088D704721B1028842F00202C7
:104D1000028004E002884FF6FD731A40028070475B
:104D200021B1028842F00402028004E002884FF6BA
:104D3000FB731A400280704721B1028842F0800262
:104D4000028004E002884FF67F731A4002807047A9
:104D500002884FF6F7731A40028002880A430280E5
:104D6000704702884FF6FF431A40028002880A43C8
:104D70000280704721B1028842F00102028004E003
:104D800002884FF6FE731A400280704770B5002407
:104D900000220023058C4FF6FE7635400584028CF8
:104DA0008388048B4FF68F752C40B51E2C400D88E0
:104DB0002C43751E2A408D892A434D882A43524D23
:104DC000A84202D0564DA84213D14FF6F7752A409B
:104DD000CD892A434FF6FB752A408D882A434FF62A
:104DE000FF652B404FF6FF552B400D8A2B434D8A14
:104DF0002B43838004838D684563028470BD70B546
:104E0000002400220023058C4FF6EF763540058400
:104E1000028C8388048B48F6FF752C404FF6FF45C3
:104E20002C400D884FF6FF7606EA05252C434FF6F9
:104E3000DF752A408D8906EA05152A434D8806EA62
:104E400005152A43304DA84202D0354DA8421DD148
:104E50004FF67F752A40CD894FF6FF7606EA051595
:104E60002A434FF6BF752A408D8806EA05152A4366
:104E70004FF6FF352B404FF2FF752B400D8A06EAA7
:104E800085052B434D8A06EA85052B4383800483E1
:104E90008D688563028470BD70B5002400220023F4
:104EA000058C4FF6FF6635400584028C8388848B21
:104EB0004FF68F752C404FF6FC752C400D882C4317
:104EC0004FF6FF552A408D894FF6FF7606EA0525F5
:104ED0002A434D8806EA05252A430B4DA84202D0F5
:104EE0000F4DA84238D14FF2FF752A40CD894FF6B9
:104EF000FF7606EA05252A434FF6FF352A408D88BE
:104F000006EA05252A4319E000000140000400409C
:104F100000080040000C0040001000400014004059
:104F200000040140004001400044014000480140AD
:104F300000180040001C0040002000404EF6FF75A5
:104F40002B404DF6FF752B400D8A06EA05152B43C5
:104F50004D8A06EA05152B43838084838D68C563DB
:104F6000028470BD70B5002200230024058C4EF62B
:104F7000FF7635400584038C8488828B48F6FF7564
:104F80002A404FF6FF452A400D884FF6FF7606EA85
:104F900005252A434DF6FF752B408D8906EA053518
:104FA0002B434D8806EA05352B43FE4DA84202D01F
:104FB000FD4DA84208D14BF6FF752C400D8A4FF6E7
:104FC000FF7606EA85152C43848082838D6805640C
:104FD000038470BD002101804180818081608181D6
:104FE000C18101824182704770B5034600200024D0
:104FF0001846183001258D40ACB21D8CA5431D8488
:1050000009B108290AD100EB610005684FF68F76D7
:10501000354005600568154305600FE00D1FC5F3B9
:105020004E052844056848F6FF763540056005685A
:105030004FF6FF7606EA02263543056070BD4163F0
:10504000704781637047C1637047016470470A46C7
:105050000021018B4FF68F73194011430183704774
:105060000A460021018B48F6FF7319404FF6FF7383
:1050700003EA02231943018370470A460021818B0A
:105080004FF68F7319401143818370470A46002100
:10509000818B48F6FF7319404FF6FF7303EA022332
:1050A0001943818370470A460021018B4FF6F7733D
:1050B00019401143018370470A460021018B4FF2CA
:1050C000FF7319404FF6FF7303EA0223194301836C
:1050D00070470A460021818B4FF6F7731940114340
:1050E000818370470A460021818B4FF2FF7319407C
:1050F0004FF6FF7303EA02231943818370470A4680
:105100000021018B4FF6FB73194011430183704757
:105110000A460021018B4FF6FF3319404FF6FF730B
:1051200003EA02231943018370470A460021818B59
:105130004FF6FB7319401143818370470A460021E3
:10514000818B4FF6FF3319404FF6FF7303EA0223BA
:105150001943818370470A460021018B4FF67F7304
:1051600019401143018370470A460021018BC1F3A6
:105170000E014FF6FF7303EA0223194301837047C0
:105180000A460021818B4FF67F73194011438183BA
:1051900070470A460021818BC1F30E014FF6FF7361
:1051A00003EA02231943818370470A460021018CD8
:1051B0004FF6FD7319401143018470470A460021E0
:1051C000018C4FF6F77319401143018470470A466A
:1051D0000021018C4FF6DF7319404FF6FF7303EA8D
:1051E00002131943018470470A460021018C4FF6CF
:1051F0007F7319404FF6FF7303EA021319430184CA
:1052000070470A460021018C4FF6FF5319404FF6B4
:10521000FF7303EA02231943018470470A46002101
:10522000018C4FF2FF7319404FF6FF7303EA02231C
:105230001943018470470A460021018C4DF6FF7323
:1052400019404FF6FF7303EA023319430184704794
:1052500030B5002301248C40A3B2048C9C43048409
:10526000048C02FA01F5ADB22C43048430BD30B594
:10527000002304248C40A3B2048C9C430484048C3B
:1052800002FA01F5ADB22C43048430BD828B4FF29B
:10529000FF331A408283828B4FF6FF7303EA0123A8
:1052A0001A4382837047F0B50C4615460021002250
:1052B0000026078C4EF6FF7C07EA0C070784818BDB
:1052C000028C4FF6FF7707EA043640F6FF47394075
:1052D0004FF6FF7707EA052739434FF6FF7707EACE
:1052E0000337394345F6FF773A4046F480573A434F
:1052F00081830284F0BD828B4FF6F3731A40828360
:10530000828B0A4382837047F0B50C461546002114
:1053100000220026078C4FF6FF6C07EA0C07078473
:10532000818B028C4FF6FF7707EA04264FF60C7745
:1053300039404FF6FF7707EA03172F4339434FF2FF
:10534000FF573A4046F480773A4381830284F0BDA8
:10535000028B4FF2FF331A400283028B4FF6FF732A
:1053600003EA01231A4302837047F0B50C46154641
:10537000002100220026078C4FF6EF7C07EA0C077D
:105380000784018B028C4FF6FF7707EA041640F67C
:10539000FF4739404FF6FF7707EA033739434FF6A7
:1053A000FF7703E0000001400004014007EA052701
:1053B00039434FF65F773A4046F010073A4301838E
:1053C0000284F0BD028B4FF6F3731A400283028B06
:1053D0000A4302837047F0B50C46154600210022AF
:1053E000068C4FF6FE773E400684018B028C4FF60A
:1053F0000C7631407E1C06EA03162E4331434FF6ED
:10540000F576324044F00106324301830284F0BD58
:1054100070B505460C46208850B92389A28861885A
:105420002846FFF7D8FFE1882846FFF7CBFF25E0A5
:10543000208804280AD12389A28861882846FFF79A
:1054400094FFE1882846FFF783FF17E020880828AB
:105450000AD12389A28861882846FFF755FFE18891
:105460002846FFF748FF09E02389A288618828467B
:10547000FFF719FFE1882846FFF708FF70BD0021FC
:1054800001804180012181800021C180018170471C
:105490002DE9F04105460C4600260127608808B931
:1054A000022600E00026A088012801D1022700E0A2
:1054B00001272088A0B92389A28861882846FFF7A0
:1054C0008AFFE1882846FFF77DFF23893A46314667
:1054D0002846FFF74AFFE1882846FFF739FF13E027
:1054E0002389A28861882846FFF73FFFE188284684
:1054F000FFF72EFF23893A4631462846FFF76BFF18
:10550000E1882846FFF75EFFBDE8F0810146486B61
:1055100070470146886B70470146C86B704701466B
:10552000086C70470A884B881A438B881A43CB88CB
:105530001A430B891A434B891A438B891A43A0F8E3
:10554000442070470021018041808180C180018119
:1055500041818181704731B1B0F8442042F400426A
:10556000A0F8442005E0B0F84420C2F30E02A0F8F1
:105570004420704721B1828842F00402828004E016
:1055800082884FF6FB731A408280704721B182886F
:1055900042F00102828004E082884FF6FE731A40D6
:1055A000828070471AB183890B43838102E083892B
:1055B0008B43838170478182704702460020138AA3
:1055C0000B400BB1012000E000207047CA4302826B
:1055D000704730B50246002000230024158A05EAF2
:1055E0000103958905EA010413B10CB1012000E023
:1055F000002030BDCA430282704741EA0203A0F88E
:10560000483070471AB183890B43838102E0838954
:105610008B438381704721B1828842F008028280E7
:1056200004E082884FF6F7731A4082807047018940
:105630004FF6F8721140018170470A460021018936
:105640004FF68F73194011430181704730B50446FE
:105650000D4629462046FFF7F0FF208940F007005D
:10566000208130BD2DE9F04104460D4616461F4607
:10567000602D06D13B46012231462046FFF775FEDC
:1056800005E03B46012231462046FFF7A4FE2946AD
:105690002046FFF7D2FF208940F007002081BDE8B7
:1056A000F08130B50C4600210189C9B24FF6FF7573
:1056B00005EA0325154325432943018130BD2DE922
:1056C000F04105460E4617469846002443463A46A2
:1056D00031462846FFF7E5FF2C894FF6F870044065
:1056E00044F007044FF68F70044044F070042C819E
:1056F000BDE8F081F0B504460D4616461F463B4610
:10570000324629462046FFF7CCFF208940F48040EE
:105710002081F0BD82884FF68F731A408280828884
:105720000A438280704702894FF6F8731A4002815B
:1057300002890A430281704702894FF67F731A403B
:10574000028102890A4302817047F0B50C46154672
:105750001E460021002200230189028B038C4FF694
:10576000F877394021434FF6FC473A4040F20117A1
:105770003A434FF6DD773B404FF6FF7707EA0617CF
:105780002F433B43018102830384F0BD21B1828812
:1057900042F08002828004E082884FF67F731A40D4
:1057A00082807047A0F8501070470000FE4A1070C9
:1057B000704730B1FC49096841F48071FA4A1160C0
:1057C00005E0F949096821F48071F74A11607047D2
:1057D00030B1F549096841F40071F34A116005E000
:1057E000F149096821F40071EF4A1160704730B146
:1057F000ED49096841F48061EB4A116005E0EA492E
:10580000096821F48061E84A11607047E648006841
:1058100040F40060E44908607047E348006840F4E1
:105820008050E14908607047DF481030006800F0A0
:10583000004028B1DD48DC49091D0860DC480860EB
:105840007047D9481030006840F00040D649103108
:10585000086070470920D4490C31096801F480318F
:10586000B1F5803F01D1012020E0CF490C3109681A
:1058700001F0100109B1062018E0CB490C3109688C
:1058800001F4807109B1022010E0C7490C310968A8
:1058900001F0EF0109B1072008E0C3490C310968A4
:1058A00001F0020109B1082000E00920704708B5A5
:1058B00009200090FFF7CEFF009002E0FFF7CAFF3B
:1058C00000909DF800000128F8D09DF8000008BD68
:1058D00070B504460A460026092502B909E0012AE6
:1058E00001D1160205E0022A01D1160201E04FF4AF
:1058F0004076FFF7DCFF0546092D2DD1AA48103070
:10590000006820F44070A84910310860084600681B
:10591000304308600846006820F0F8000860084638
:10592000006844F0020108439F49103108600846AE
:10593000006840F480300860FFF7B9FF05469A48D8
:105940001030006820F002009749103108600846C6
:10595000006820F0F8000860284670BD30B50246A7
:1059600000250924FFF7A3FF044602B909E0012A34
:1059700001D1150205E0022A01D1150201E04FF420
:105980004075092C20D188481030006820F4407000
:1059900085491031086008460068284308600846B9
:1059A000006840F0040008600846006840F4803059
:1059B0000860FFF77CFF04467B481030006820F049
:1059C0000400794910310860204630BD30B50246E8
:1059D00000250924FFF76BFF044602B909E0012AFC
:1059E00001D1150205E0022A01D1150201E04FF4B0
:1059F0004075092C20D16C481030006820F44070AC
:105A00006949103108600846006828430860084664
:105A1000006840F0040008600846006840F48030E8
:105A20000860FFF744FF04465F481030006820F02C
:105A300004005D4910310860204630BD30B5024693
:105A400000250924FFF733FF044602B909E0012AC3
:105A500001D1150205E0022A01D1150201E04FF43F
:105A60004075092C20D150481030006820F4407057
:105A70004D49103108600846006828430860084610
:105A8000006840F4004008600846006840F4803038
:105A90000860FFF70CFF044643481030006820F40C
:105AA0000040414910310860204630BD70B50646BF
:105AB00014461D460922FFF7FAFE0246092A1ED1A6
:105AC00039481030006820F44070374910310860C0
:105AD0000846006840F4407008600846006840F0DE
